:020000040800F2
:10000000082B0020590200089502000897020008FA
:10001000990200089B0200089D02000800000000F1
:100020000000000000000000000000009F02000827
:10003000A102000800000000A3020008AD080008AB
:10004000A7020008A7020008A7020008A7020008EC
:10005000A7020008A7020008A7020008A7020008DC
:10006000A7020008A7020008A7020008A7020008CC
:10007000A7020008A7020008A7020008A7020008BC
:10008000A7020008A7020008A7020008A7020008AC
:10009000A7020008A7020008A7020008A70200089C
:1000A000A7020008A7020008A7020008A70200088C
:1000B000A7020008A7020008B90A0008A702000862
:1000C000A7020008A7020008A7020008A70200086C
:1000D000A7020008A7020008A7020008A70200085C
:1000E000A7020008A7020008A7020008A70200084C
:1000F000A7020008A7020008A7020008A70200083C
:10010000A7020008A7020008A7020008A70200082B
:10011000A7020008A7020008A7020008A70200081B
:10012000A7020008A7020008A7020008A70200080B
:10013000A7020008A7020008A7020008A7020008FB
:10014000A7020008A7020008A7020008A7020008EB
:10015000A7020008A7020008A7020008A7020008DB
:10016000A7020008A7020008A7020008A7020008CB
:10017000A7020008A7020008A7020008000000006C
:10018000A7020008A702000800F002F800F054F8E7
:100190000AA090E8000C82448344AAF10107DA45E2
:1001A00001D100F049F8AFF2090EBAE80F0013F0E0
:1001B000010F18BFFB1A43F001031847841E00000B
:1001C000A41E00000A4410F8014B14F00F0508BFEC
:1001D00010F8015B240908BF10F8014B6D1E05D013
:1001E00010F8013B6D1E01F8013BF9D1641E03D0EC
:1001F000641E01F8015BFBD19142E4D3704700001B
:100200000023002400250026103A28BF78C1FBD81F
:10021000520728BF30C148BF0B607047642900F007
:10022000D180732900F00182002070471FB501F0D2
:1002300035FD1FBD10B510BD00F02DFA1146FFF7BA
:10024000F5FF01F029F800F04BFA03B4FFF7F2FFD5
:1002500003BC00F053FA000016481749174B9942A7
:100260003CBF50F8042B41F8042BF8D314494FF04D
:1002700000028B4238BF43F8042BFAD3DFF8440066
:10028000016841F470010160BFF34F8FBFF36F8FBE
:100290000D480047FEE7FEE7FEE7FEE7FEE7FEE764
:1002A000FEE7FEE7FEE7FEE708480949094A0A4B70
:1002B000704700006020000800000020D81B0020CC
:1002C000082B002088ED00E08901000808250020A7
:1002D000082B002008270020082700200FB41CB599
:1002E000084B06AA7B4469460090059800F073F914
:1002F00004460020694600F081F920461CBC5DF8E8
:1003000014FB0000150300002DE9F0410E460446E1
:10031000002020622046E168884730B3252805D0B8
:10032000D4E901219047206A401CF2E7E1682046A9
:1003300000278847050018D0A5F14100192802D8E8
:1003400020354FF400673246294620462760FFF7E4
:1003500065FF40B1012804D0F61D26F007060836D7
:10036000D8E7361DD6E72846DAE7206ABDE8F081EF
:1003700070B50C460546012A05D02878800600D5C0
:10038000EA69002302E0012305E05B1C934202D2EC
:10039000E05C0028F9D1A869E618C01AA861286AAB
:1003A000184428622846AFF3008004E0D5E9012113
:1003B00014F8010B9047B442F8D32846AFF30080FD
:1003C00070BD00002DE9F041064600241068752933
:1003D000314616A510D0AFF30080002802DA404263
:1003E00013A507E031688A0701D512A502E0490785
:1003F00004D511A5012401E0AFF3008000210A22F9
:1004000006F1240709E0B0FBF2FCB0FBF2F302FBBB
:100410001C00303078541846491C0028F3D123467C
:100420002A463046BDE8F04100F077B800000000F1
:100430002D0000002B00000020000000032A40F2E5
:10044000308010F0030C00F0158011F8013BBCF176
:10045000020F624498BF11F801CB00F8013B38BF8E
:1004600011F8013BA2F1040298BF00F801CB38BF9C
:1004700000F8013B11F0030300F0DB80083AC0F004
:10048000088051F8043B083A51F804CBA0E8081062
:10049000F5E7121D5CBF51F8043B40F8043BAFF395
:1004A0000080D20724BF11F8013B11F801CB48BFEF
:1004B00011F8012B24BF00F8013B00F801CB48BF25
:1004C00000F8012B70474FF0000200B51346944628
:1004D0009646203922BFA0E80C50A0E80C50B1F19C
:1004E0002001BFF4F7AF090728BFA0E80C5048BFB0
:1004F0000CC05DF804EB890028BF40F8042B08BF4E
:10050000704748BF20F8022B11F0804F18BF00F849
:10051000012B70477047704770472DE9F0470D4633
:1005200099469246044600F124080168880604D5DD
:10053000E06921F01001216000E00120A84201DD06
:10054000471B00E00027A1697A1902EB0900081A8D
:10055000A0612078C00602D42046AFF300800026B8
:1005600008E0D4E901211AF806009047206A401CEF
:10057000761C20624E45F4DB2078C0060AD5204662
:10058000AFF3008006E0D4E9012130209047206AD3
:10059000401C2062381EA7F10107F4DC07E0D4E913
:1005A000012118F805009047206A401C2062281E8F
:1005B000A5F10105F3DC2046AFF3008020780006AA
:1005C00002D50220BDE8F0870120FBE701694A1C43
:1005D00002610878704700B58FB0CDE90131002184
:1005E000059105497944CDE9031011466846FFF7A6
:1005F0008BFE0FB000BD0000E5FFFFFF0A6802F8A8
:10060000010B0A60704710B5436913B1AFF3008066
:1006100001E0FFF7ADFE012010BD127800F12401CA
:100620000A7000224A700122EDE711684FF0FF3294
:10063000E9E710B5203AC0F00B80B1E81850A0E807
:100640001850B1E81850A0E81850203ABFF4F5AFA0
:100650005FEA027C24BFB1E81850A0E8185044BFFC
:1006600018C918C0BDE810405FEA827C24BF51F869
:10067000043B40F8043B08BF7047D20728BF31F85D
:10068000023B48BF11F8012B28BF20F8023B48BFAE
:1006900000F8012B7047754600F02CF8AE460500B7
:1006A0006946534620F00700854618B020B5FFF78D
:1006B000FBFDBDE820404FF000064FF000074FF073
:1006C00000084FF0000BAC46ACE8C009ACE8C0092C
:1006D000ACE8C009ACE8C00921F007018D467047BD
:1006E00010B50446AFF300802046BDE81040FFF788
:1006F000ACBD000000487047D81B002001491820FD
:10070000ABBEFEE7260002007047000010B541F2C4
:100710004C04C4F20204206840F0010020604FF055
:100720009040016841F44061016000F019FAE0680E
:1007300040F00050E06047F20040C4F20000C16B9E
:1007400021F4E021C163016821F4601101600168B6
:1007500041F400110160016841F400210160016869
:1007600041F480210160016841F48031016010BDD5
:1007700041F21400C4F60000016821F480710160A8
:100780007047000041F21400C4F60000016841F413
:10079000807101607047000041F24C00C4F2020019
:1007A000016841F0010101604FF09040016821F0C3
:1007B0003F0101600C20C4F60000016821F03F01F8
:1007C0000160016841F02A010160704741F24C006C
:1007D000C4F20200016841F01201016040F20840D9
:1007E000C4F600006FF0300140F8081C50F8081CF7
:1007F00041F0100140F8081C016821F0300101604F
:10080000016841F03001016050F8041C21F004013E
:1008100040F8041C416821F0300141606FF4403120
:10082000C0F8F81BD0F8F81B41F48031C0F8F81B71
:1008300041F20800C4F60000016821F44031016073
:10084000016841F44031016050F8041C21F48071CA
:1008500040F8041C416821F44031416070470000B9
:1008600041F24C00C4F20200016841F00201016053
:1008700040F20040C4F60000016821F03001016040
:10088000016841F010010160016821F0C0010160C0
:10089000016841F040010160016821F440510160AC
:1008A000C16821F0C001C16070470000F0B581B09F
:1008B00042F2F044C2F20004206840F21446B0F55F
:1008C000007F24BF00202060C4F600062568306841
:1008D000002120F00400B1EB550F08BF0430306058
:1008E0002068316842F2F44760F3C3013160C2F21C
:1008F0000007387810B1FFF745FF01E0FFF738FF38
:1009000056F8040C0F2D9EBF690800F04000785483
:1009100020680130206041F63840C2F200000168D2
:10092000012902DB01680139016001B0F0BD00005E
:10093000B0B582B041F20001C4F202010A6842F08F
:1009400008020A600A6822F0F0020A600A6842F0AF
:1009500070020A600A6842F001020A600A6892079F
:10096000FCD54EF21004CEF20004002501382560BB
:10097000606000F0F9F9A5600195206820F004009E
:100980002060206840F002002060206840F00100F4
:10099000206002B0B0BD000042F20001C4F20201CA
:1009A000086820F0070008600A6841F2000042F081
:1009B0000202C4F202000A60016841F48071016021
:1009C00001684905FCD5416821F0F8514160416852
:1009D00041F080514160016821F08071016000BFE9
:1009E00001688901FCD4C168142221F00301C160AF
:1009F000C16841F00201C160C16862F30E21C160AB
:100A0000C168012262F30611C160C16821F0C061B2
:100A1000C160C16841F08071C160016841F08071BE
:100A2000016000BF01688901FCD5816821F00301E4
:100A30008160816841F00301816000BF816801F03D
:100A40000C010C29FAD1816821F0F00181608168E4
:100A500021F4E0618160816821F460518160016866
:100A600021F08061016000BF01684901FCD4016987
:100A700021F4FE410161016941F4C0510161016944
:100A800041F400310161016941F480310161016883
:100A900041F08061016000BF01684901FCD5D0F8D8
:100AA000881021F44001C0F88810016E41F4001153
:100AB0000166704700000000F0B581B040F61006F6
:100AC000C4F20006306880073CD542F20057C2F2FB
:100AD000000797ED000B51EC100B00F0CBFE00F07F
:100AE000BDFD41F2C831C2F200010968484347F236
:100AF0001441C4F20001086041F64040C2F2000017
:100B000090ED000B97ED001B51EC100B53EC112BEB
:100B100000F0C0FD9FED0E0B044653EC102B0D466C
:100B200001F0B5F89FED0C0B002851EC102B1CBF09
:100B30002946224641EC102B87ED000B306820F04F
:100B400002003060306820F00100306001B0F0BD7C
:100B5000000000000080764000000000000000005F
:100B600080B541F25800C4F2020001684FF68F725E
:100B700041F00401016040F60000C4F20000016889
:100B8000CFF6FE7221F060010160016821F01001D2
:100B90000160416821F070014160416841F040010D
:100BA0004160C16841F04001C160C16841F001018C
:100BB000C160816911408161816941F06001816199
:100BC000092181626321C16232214163016A41F0DE
:100BD00001010162016841F00101016000F0CCF8FF
:100BE00000F0BAF880BD000041F24C00C4F20200EF
:100BF000016841F00801016040F60040C4F60000C1
:100C0000016821F470510160016841F420510160D4
:100C1000016A41F0EE610162816841F470518160C6
:100C2000C16821F47051C160C16841F4A051C16034
:100C3000416821F0600141607047000080B541F2D9
:100C40008800C4F2020050F8301C41F4003140F832
:100C5000301C016821F00C010160016841F00401C1
:100C60000160FFF7C1FF44F20040C4F2000000F051
:100C700001F880BD016844F2004221F001010160E9
:100C80000168C4F2000221F0102101600168904265
:100C900021F400410160416821F44051416040F27B
:100CA000B621C160016841F00C01016022D044F618
:100CB0000041C4F2000188422CD1016841F02001BA
:100CC0000160016821F040010160016821F010011C
:100CD0000160016821F080010160016821F48071E8
:100CE0000160016821F040010160016821F001010B
:100CF00001600FE044F22041C4F200010A6842F0B2
:100D000040020A6043F60801C4F201010A6842F099
:100D1000C0020A60016841F001010160C1698902F5
:100D2000FCD500BFC1694902FCD5704762B14FF0E4
:100D3000000C00BFC3691B06FCD511F80C300CF188
:100D4000010C94450385F5D1C1694906FCD5C169FB
:100D500021F04001C16170474EF20010CEF2000058
:100D60004FF08041016070474EF62350CEF20000F4
:100D700010210170704700004EF21E40CEF20000BC
:100D800010210170704700002DE9F0410346C0EBCF
:100D9000C00002EB800C5CF82100022B0EDC0CEB97
:100DA00081020627BB4209D01668864206D1013F60
:100DB000022F02F11C02F5D1BDE8F081CA1C022904
:100DC0004FF00007C8BF0622C8BFCF1E974247DDBD
:100DD000C3F1050299421E46C1F1060EB8BF0E4688
:100DE000032E15464FF00308A8BF46469645B8BFE8
:100DF0007546032DA8BF45469F1BEC18A74241DD51
:100E00008A42C8BF0A46032AA8BF42469E45A8BFD9
:100E10009E46BEF1030FA8BFC646D418A3EB0E032F
:100E20009C42BCBF0020BDE8F08102EB420201EB16
:100E3000420101340CEB8101002209E00132042A55
:100E400008BFBDE8F081013C9C42A1F1180104DD1E
:100E50000F688742F2D00022F5E70020BDE8F0815C
:100E6000D21B01320CEB8705002604E00026013A74
:100E700005F10405ACD02F688742F7D10136042E66
:100E8000F5D199E77419651CA1EBC6040CEB840637
:100E9000002704E00027013D06F12006B0D03468A9
:100EA0008442F7D10137042FF5D185E741F6384167
:100EB000C2F20001086000BF08680028FCD170473A
:100EC0002DE9F04F81B0044641F6F04545F61B3060
:100ED00090460E46C2F20005C4F6322041F6BC41EF
:100EE00041F6CA42286000272846C0F60001C0F635
:100EF000000244F2004B00F8047FB8F1010F08BF74
:100F00000A4669A1C4F2000BFFF7E8F900F1040AF0
:100F1000584629465246D946FFF708FF0FF2B01B44
:100F20000AE000BF05EB0A0059463A46FFF7D6F93A
:100F300082440137072F1DD0BC42F3D1B8F1010F15
:100F40000AD141F6B64141F6BC4205EB0A00C0F6B3
:100F50000001C0F60002E9E7B8F1020FE9D141F65D
:100F6000B64141F6CA4205EB0A00C0F60001C0F6E0
:100F70000002DBE740F60D2105EB0A0025F80A1018
:100F8000002100F8021F41F61451C0F6000125228D
:100F9000FFF754FA0AF1260248462946FFF7C6FE33
:100FA00046F6345745F61B3442F28F0A42F26D087A
:100FB000C0F27C07C3F23344C5F61B3AC9F2E278AB
:100FC000002011E00020287247F66D40C0F60D2089
:100FD00068604846294608222C60FFF7A7FE009863
:100FE0001C360130062841D04FF0000B009019E06C
:100FF00043F23370C0F26D00C5F8120045F61B30A5
:10100000C5F80EA0C5F80A80C3F233101522C5F842
:10101000060048462946FFF789FE0BF1010BBBF19C
:10102000070FCFD0C5F803702C6056F82B000228AC
:101030000AD00128DCD0B8B942F22000C0F220006A
:10104000C5F806000922E4E743F23370C0F26D00F0
:10105000C5F8120045F61B30C3F23330C5F80EA0B8
:10106000C5F80A80D2E700BF0622D2E741F69470A5
:10107000C0F6000090E88E00D0E90464D0E906CE06
:1010800085E88E00016A90F82400296285F8240022
:10109000484629462422C5E90464C5E906CEFFF77F
:1010A00045FE01B000F018B8506C617965722025DA
:1010B000732C207072657373204220746F20706CE3
:1010C000616365206120636869703A200D0A000041
:1010D000202025642000000030BCBDE8C08F000047
:1010E0002DE9F04F81B041F63C50C0F6000000F110
:1010F0002005C76941F6F0442ECDC2F2000490E805
:101100000057D0E905B6006BC4E9077104F124016A
:101110002CC141F67C61206304F13300C0F600016C
:10112000352284E80057C4E905B6FFF787F941F690
:10113000EC6104F16700C0F600013522FFF77EF98B
:1011400041F6247104F19B00C0F600013522FFF73F
:1011500075F941F6B46104F1CF00C0F60001352203
:10116000FFF76CF941F65C7104F20310C0F6000160
:101170003522FFF763F941F69C5104F23710C0F6AF
:1011800000013522FFF75AF941F60C6104F26B10A9
:10119000C0F600013522FFF751F941F6446104F22F
:1011A0009F10C0F600013522FFF748F941F6D451EF
:1011B00004F2D310C0F600013522FFF73FF941F6E3
:1011C000705104F20720C0F600012B22FFF736F918
:1011D00042F2000104F23120C0F600013E22FFF786
:1011E0002DF940F60D20C0F60D20C4F86E02002047
:1011F00084F8720244F20040C4F20000214640F23A
:101200007222FFF793FD01B000F000B830BCBDE8DA
:10121000C08F0000F0B581B042F2F447C2F200077F
:101220007A78044642B341F648460D46C2F20006BB
:1012300002E000BF7878F8B1B87978B1F879002881
:10124000F8D1062031462A46062CB8BF601C044659
:10125000FFF736FEF8790028FCD0EBE70020314696
:101260002A46002CC8BF601E0446FFF729FE00BFB7
:10127000B8790028FCD0DDE778780028FCD020463B
:1012800001B0F0BD80B541F64840C2F20000A8218F
:10129000FFF719F980BD0000ADF5D66DFFF77CFBB7
:1012A000FFF77AFAFFF7CAFCFFF790FAFFF7D8FAD0
:1012B00040F2E730FFF73CFBFFF728FAFFF750FC5E
:1012C00041F6BC70C0F60000016840F29869CDF8A4
:1012D000A4164168C2F20009CDF8A016816841F653
:1012E0004847CDF89C16C16841F6F045CDF89816F0
:1012F000016909F1100BCDF8941641698069C2F2B9
:1013000000074FF00208C2F20005CDF89016CDF8A4
:101310008C0600BF0DF2AC600DF5D56100F0F2F85F
:1013200003E000BFBAF1010F44DADDF8AC66DDF886
:10133000A8063146FFF76EFF0446CDF8A8066846BA
:1013400040F288615A4652F8043B043940F8043BA5
:10135000F9D199E80F0000F0A1F8204631463A464D
:1013600000F030F9012E824606D11AF1010003D0B7
:10137000CDF8AC8606E000BF1AF101001CBF0120C9
:10138000CDF8AC06DDF8AC2620463946FFF798FDCF
:10139000BAF1FF3FC6DC28462FA12246FEF79EFF8A
:1013A000024644F20040C4F200002946FFF7BEFCAA
:1013B000B8E700BF0CD041F2D034BAF1020FC2F24C
:1013C000000419D141F6CA42C0F6000208E000BF8D
:1013D00041F6BC4241F2D034C0F60002C2F2000431
:1013E000284629A1FEF77AFF024644F20040C4F2E3
:1013F00000002946FFF79AFCDDF8A406294628607C
:10140000DDF8A0061B226860DDF89C06A860DDF808
:101410009806E860DDF894062861DDF890066861BA
:10142000DDF88C06A86144F20040C4F20000FFF72A
:101430007DFC684604F1100140F2886251F8043BDB
:10144000043A40F8043BF9D194E80F0000F026F884
:1014500000F0FCF85EE700BF436F6C756D6E2025F1
:10146000642069732066756C6C2E2054727920613B
:1014700020646966666572656E7420636F6C756D55
:101480006E2E0D0A00000000506C617965722025F7
:10149000732077696E73210D0A00000084B02DE976
:1014A000F04381B00DF1200C01288CE807000B936C
:1014B00022DB08AC54F8188941F2C83941F640459E
:1014C0000026C2F20009C2F200050027206B94ED4D
:1014D0000A0BC9F80000206A85ED000BFFF7E6FC57
:1014E0000A20C9F80060C5E90066FFF7DFFC013794
:1014F000474504F11804E9DB01B0BDE8F04304B04E
:1015000070470000F0B581B00C460546FFF7BAFE03
:10151000FFF7E6FD41F6D840C0F6000090F838200D
:1015200041F6F041C2F2000181F83820D0E90023F1
:101530000A6082684B60C3688A600269CB60436955
:101540000A6182694B61C3698A61026ACB61436A3D
:101550000A62826A4B62C36A8A62D0E90C20CB625B
:1015600041F6D873C0F600030A631A6848635868E6
:101570008A639A68C863D8680A641A6948645869B3
:101580008A649A69C864D869C1E91420186A9A8C77
:10159000886544F20040A1F85C20C4F200005D229E
:1015A000FFF7C4FB00F052F841F64841C2F20001D7
:1015B0000320012203260127FFF782FC2F6026600B
:1015C00001B0F0BDF0B5ADF28C6D05468C2014462F
:1015D00000EB8500052600BF2258DAB1013E721CDF
:1015E000A0F11C00F8D140F20003C2F200036846EB
:1015F00003F1100140F2886251F8044B043A40F8BC
:10160000044BF9D10FCBFFF749FF4FF0FF300DF23C
:101610008C6DF0BD40F63053C2F200032150684695
:1016200003F1100140F2886251F8047B043A40F85B
:10163000047BF9D10FCBFFF731FF30462946224614
:10164000FFF7A2FB0DF28C6DF0BD000042F2F440FA
:10165000C2F20000C1780029FCD1704770B5014684
:101660000E464FF487750A4C5A290AD9B42998BFF7
:10167000C1F1B40105D9A942D8BFB43901D9C1F526
:10168000B47154F82100B42EC8BFC0F5805070BDAD
:10169000681A002010B591EA030F48BF83F0004399
:1016A00000F1EC81841A71EB030C05D2121943EBA3
:1016B0000C03001B61EB0C014FEA1154A4EB135C0B
:1016C000DFF81CE11EEA430F18BF9EEA445F00F0FA
:1016D000748021EA045123EA0E0343F48013DCF101
:1016E000200E32D322FA0CFE10EB0E0023FA0CFE71
:1016F00041EB0E01CCF1200E03FA0EFE10EB0E00B2
:10170000CCF1200E51F10001B1F5801F32D201EB76
:10171000045112FA0EF2BDE8104058BF7047401C49
:1017200038BF5FEA420218BF7047002814BF20F09C
:10173000010041F100014FEA410313F5001F38BFDA
:101740007047A1F1C04100F08BB9012A43EB0302BD
:10175000ACF1200CDCF11F0E32BF4FF0000E23FA6B
:101760000CF310EB030041EB0451B4EB115FD0D04C
:10177000A1EB045101F58011490801EB04515FEA26
:1017800030000ED350F1000038BF12FA0EFE08D11F
:10179000BDE81040C9E7401C38BF5FEA4202CAD129
:1017A000C3E7BDE810404FEA410313F5001F38BFFF
:1017B0007047A1F1C04100F053B99EEA445F08D0E0
:1017C00011EA5E0FBDE8104004BF01F000410020A7
:1017D0007047BDE8104070B500F0F4F864FBBE3E01
:1017E0000000E0FF491058BFC1F140415B1058BFF5
:1017F000C3F140438B42EFF30080704751EA030C82
:1018000017D41CF5801F58BFBCF5801F00F106805F
:10181000994218BF704708BF9042704707D711F52B
:10182000801F58BF13F5801F19D499427047894211
:1018300070471CF5801F08D5BCF5801FF7D58B427B
:1018400018BF704708BF824270474FF4001C1CEB62
:10185000410F38BF1CEB430F01D28B42704770B56C
:1018600000F0B0F8922449004FF000514FF080533F
:10187000FFF7B8BF4FEA41034FEA5353A3F5806324
:10188000D3F11E03C8BFD3F1210C0CDD4FF0004291
:1018900042EAC12242EA505232FA03FC8CEAE17C6D
:1018A000ACEBE1707047102BC4BF0020704703F50C
:1018B000787CBCF1FF3F04D06FF0004282EA210047
:1018C000704770B500F07EF8499224800020704780
:1018D000F2E7000051EA030C17D41CF5801F58BF33
:1018E000BCF5801F00F10680994218BF704708BF01
:1018F0009042704707D711F5801F58BF13F5801F1E
:1019000019D499427047894270471CF5801F08D549
:10191000BCF5801FF7D58B4218BF704708BF8242C5
:1019200070474FF4001C1CEB410F38BF1CEB430FFA
:1019300001D28B42704770B500F044F89224490000
:101940004FF080514FF00053FFF74CBF51EA030CAA
:1019500017D41CF5801F58BFBCF5801F00F106800E
:10196000994218BF704708BF9042704707D711F5DA
:10197000801F58BF13F5801F19D4994270478942C0
:1019800070471CF5801F08D5BCF5801FF7D58B422A
:1019900018BF704708BF824270474FF4001C1CEB11
:1019A000410F38BF1CEB430F01D28B42704770B51B
:1019B00000F008F8922449004FF000514FF0805396
:1019C000FFF710BF0EF1020E2EF0030E5EF8046B4F
:1019D000364205D4012A43EB030515F5001F12D842
:1019E000012841EB010C1CF5001F0CD80ED14FEA69
:1019F000D17C0CEB4C0C0CF1020C15F5001F08BF50
:101A00004CEBD37C04E04FF0080C01E04FEAD37CB0
:101A10000CEB4C0526FA05F606F00706B6F1040CA9
:101A200006D20EEB860CBDE870404CF0010C60470E
:101A3000DFE80CF0090B02024FF00041A1F5002194
:101A40004FF0000070BD19461046012851EB01040B
:101A500018BFD4F5001484BF002001F0004170BD10
:101A60000808A0F500114FEA3101704710B591EA5E
:101A7000030F48BF83F000433FF514AE841A71EBA7
:101A8000030C07D28CF0004C121943EB0C03001B23
:101A900061EB0C014FEA1154A4EB135CDFF8A4E1F5
:101AA0001EEA430F18BF9EEA445F00F0B48021EAAB
:101AB000045123EA6E035242C3EB6E0338BF5B1E30
:101AC000DCF1200E25D322FA0CFE10EB0E0043FAB7
:101AD0000CFE41EB0E01CCF1200E03FA0EFE10EBD2
:101AE0000E00CCF1200E51F1000129D401EB04517C
:101AF00012FA0EF2BDE8104058BF7047401C1CBFE0
:101B0000B2F1004F704700280CBF491C20F00100C3
:101B1000704712EB020E43EB030218BF4FF0010EA9
:101B20004EEA4202ACF1200CDCF11E0E56D943FA0B
:101B30000CFE10EB0E00CCF11E0E51F1FF31D5D58D
:101B40000EF1010E12FA0EFE404141EB010101EBD4
:101B5000445C5FEA5C5C10D901EB045110EBDE7071
:101B600038BFBEF1004FBDE8104018BF70470028D5
:101B70000CBF491C20F00100704734D24FEAD42C2E
:101B800024F4006411F500111BD0B1FA81F20B3A74
:101B9000A41AA41ED2F12003914030FA03F3194392
:101BA000904001EBCC7101EB0451002CBDE81040DA
:101BB000A8BF704701F1C04101F000414FF00000A3
:101BC0007047B0FA80F310FA03F102D1BDE810407B
:101BD0007047E41A173C4805C90AE2E701EB0451D3
:101BE000BDE81040704749104FEA300001EB045146
:101BF000BDE8104002E04FF0000170474A0008BF06
:101C00000042F8D0B2F5001F28BF704701F0004134
:101C10004FF0000070479EEA445F07D011EA5E0F64
:101C2000BDE8104004BF002100207047BDE810400F
:101C300070B5FFF7C7FE00BF40DFF63E104683F0E9
:101C4000004170470000E0FF10B5FFF7D7FD0CBF63
:101C50000120002010BD10B5FFF7D0FD14BF0120FA
:101C6000002010BD10B5FFF735FE8CBF012000200D
:101C700010BD10B5FFF72EFE2CBF0120002010BDB7
:101C800010B5FFF763FE94BF0120002010BD10B512
:101C9000FFF75CFE34BF0120002010BDF1EE100AFA
:101CA0004FF6FF71C0F2C03120EA010040F04070F1
:101CB000E1EE100A70472020257320001B5B3331B2
:101CC0006DE2978F1B5B33376D001B5B33336DE227
:101CD000978F1B5B33376D00506C617965722031D3
:101CE000206973201B5B33316DE2978F1B5B3337A9
:101CF0006D2C20506C617965722032206973201B35
:101D00005B33336DE2978F1B5B33376D0D0A0D0A22
:101D1000000000001B5B33346D2D2D2D2D2B2D2D40
:101D20002D2B2D2D2D2B2D2D2D2B2D2D2D2B2D2DEB
:101D30002D2B2D2D2D2B0D0A000000001B5B324A90
:101D40001B5B33316D2D2D2D2D2D2D2D2D2D2D2D5D
:101D50002D2D2D2D2D2D2D2D2D2D2D2D2D2D2D2DB3
:101D60002D2D2D2D2D2D2D2D2D2D2D2D2D0D0A0013
:101D70002D2D2D2D2D2D2D2D2D2D2D2D2D2D2D2D93
:101D80002D2D2D2D2D2D2D2D2D2D2D2D2D2D2D2D83
:101D90002D2D2D2D2D2D2D2D0D0A00003A2020202A
:101DA000202020202020202020202020201B5B33EA
:101DB000336D7C207C7C207C1B5B33316D202020AC
:101DC000202020202020202020202020203A0D0A22
:101DD000000000003A202020202020202020202069
:101DE00020202020202020201B5B33336D7C5F7C53
:101DF0001B5B33316D20202020202020202020203C
:101E000020202020203A0D0A000000003A20202047
:101E1000202020202020202020202020201B5B3379
:101E2000336D7C207C7C207C5F1B5B33316D2020FC
:101E3000202020202020202020202020203A0D0AB1
:101E4000000000003A2020202020202020202020F8
:101E500020202020201B5B33336D7C5F5F202020FF
:101E60005F7C1B5B33316D20202020202020202030
:101E700020202020203A0D0A000000003A1B5B338E
:101E8000336D20205F5F5F5F2020202020202020F6
:101E90002020202020202020202020202020202042
:101EA000202020205F2020201B5B33316D3A0D0A5B
:101EB000000000003A1B5B33336D7C207C5F5F7C4D
:101EC00020285F29207C207C207C207C207C207C9A
:101ED000207C20205F5F2F20285F5F7C207C5F209C
:101EE0001B5B33316D3A0D0A000000003A1B5B3377
:101EF000336D202F205F5F5F7C5F5F5F20205F205E
:101F00005F5F20205F205F5F2020205F5F5F2020D9
:101F10005F5F5F7C207C5F201B5B33316D3A0D0A75
:101F2000000000003A1B5B33336D7C207C202020B6
:101F30002F205F205C7C20275F205C7C20275F2097
:101F40005C202F205F205C2F205F5F7C205F5F7C08
:101F50001B5B33316D3A0D0A000000003A1B5B3306
:101F6000336D205C5F5F5F5F5C5F5F5F2F7C5F7CDA
:101F7000207C5F7C5F7C5F7C5F7C5C5F5F5F7C5C08
:101F80005F5F5F7C5C5F5F7C1B5B33316D3A0D0A8A
:101F9000000000002B2D2D2D2B2D2D2D2B2D2D2D2B
:101FA0002B2D2D2D2B2D2D2D2B2D2D2D2B2D2D2D69
:101FB0002B1B5B33376D0D0A0000000050726573F8
:101FC0007320535441525420746F20706C617920F7
:101FD000616761696E0D0A005072657373201B5B47
:101FE00033303B34316D53544152541B5B33373BD8
:101FF00034306D20746F20706C61790D0A00000020
:102000001B5B33346D437265617465642062793A99
:10201000204572696320526F686C6F66662C204A97
:102020006F73682057696C6B69652C20416265206D
:102030004E656C736F6E0D0A1B5B33376D000000CD
:102040006020000800000020D81B0000C401000828
:1020500010220008D81B0020300F000000020008EA
:10206000820282C88A9A999999999923400573F4B2
:10207000010AFF9A999999999921400501FF01FF59
:1020800001FF01FF01FF0174820182C80AFF9A99D2
:102090009999999921400501FF01FF01FF01FF0175
:1020A000FF018C8202E2C8841E400573F4010AFF1E
:1020B0009A999999999925400501FF01FF01FF011E
:1020C000FF01FF0174820582037326028A333333D2
:1020D00033333321400382C88A6666666666661AB1
:1020E00040037326020AFF9A99999999992440030B
:1020F00001FF01FF01FF01FF01FF015D32083323F2
:1021000008334708336B08338E0833B20833D608D8
:1021100033F908331D093340093363093386093322
:10212000A90933CC0933EF0933120A33340A335681
:102130000A33780A339A0A33BC0A33DD0A33FF0ABA
:1021400033200B33400B33610B33810B33A10B3343
:10215000C10B43E00B320C331E0C333D0C335B0CD4
:1021600033790C33960C33B30C33D00C33EC0C3383
:10217000080D33240D333F0D335A0D33740D338E58
:102180000D33A80D33C10D33D90D33F10D33090EC5
:1021900033200E33370E334D0E33630E33780E3348
:1021A0008D0E33A10E33B50E33C80E33DB0E33ED77
:1021B0000E33FF0E33100F33200F33300F33400F29
:1021C000334E0F335D0F336A0F33770F33840F3382
:1021D000900F339B0F33A60F33B00F33BA0F33C3B7
:1021E0000F33CB0F33D30F33DA0F33E00F33E60F58
:1021F00033EC0F33F00F33F40F33F80F33FB0F339F
:10220000FD0F33FE0F33FF0F73FF0F0000000000C0
:040000050800018965
:00000001FF
